:100000000C945D000C9485000C9485000C94850084
:100010000C9485000C9485000C9485000C9485004C
:100020000C9485000C9485000C9485000C942F038F
:100030000C9485000C9485000C9485000C9485002C
:100040000C94E5020C9485000C94B3020C948D0280
:100050000C9485000C9485000C9485000C9485000C
:100060000C9485000C94850000000008000201003B
:100070000003040700000000000000000000000072
:10008000250028002B0000000000240027002A0083
:10009000040404040404040402020202020203032E
:1000A0000303030301020408102040800102040836
:1000B0001020010204081020EB0311241FBECFEF13
:1000C000D8E0DEBFCDBF11E0A0E0B1E0E0EBFEE0A4
:1000D00002C005900D92A631B107D9F721E0A6E143
:1000E000B1E001C01D92A83FB207E1F710E0CDE5F5
:1000F000D0E004C02197FE010E945007CC35D10703
:10010000C9F70E9462040C9456070C94000090E01A
:10011000FC01EC55FF4F249180579F4FFC018491C7
:10012000882399F090E0880F991FFC01EA57FF4F50
:10013000A591B491FC01E458FF4F859194918FB73C
:10014000F894EC91E22BEC938FBF0895AF92BF929D
:10015000CF92DF92EF92FF920F931F93CF93DF9393
:100160006C017B018B01040F151FEB015E01AE18C2
:10017000BF08C017D10759F06991D601ED91FC91E4
:100180000190F081E02DC6010995892B79F7C50111
:10019000DF91CF911F910F91FF90EF90DF90CF9063
:1001A000BF90AF900895FC01538D448D252F30E012
:1001B000842F90E0821B930B541710F0CF96089574
:1001C00001970895FC01918D828D981761F0A28DA1
:1001D000AE0FBF2FB11D5D968C91928D9F5F9F7367
:1001E000928F90E008958FEF9FEF0895FC01918D1D
:1001F000828D981731F0828DE80FF11D858D90E08A
:1002000008958FEF9FEF0895FC01918D228D892F26
:1002100090E0805C9F4F821B91098F73992708950E
:1002200080E391E00E94040121E0892B09F420E0A1
:10023000822F089580E090E0892B29F00E94100120
:1002400081110C9400000895FC01A48DA80FB92F12
:10025000B11DA35ABF4F2C91848D90E001968F73EE
:100260009927848FA689B7892C93A089B1898C910D
:10027000837080648C93938D848D981306C002885C
:10028000F389E02D80818F7D80830895EF92FF9226
:100290000F931F93CF93DF93EC0181E0888F9B8DA9
:1002A0008C8D98131AC0E889F989808185FF15C063
:1002B0009FB7F894EE89FF896083E889F989808186
:1002C0008370806480839FBF81E090E0DF91CF9155
:1002D0001F910F91FF90EF900895F62E0B8D10E077
:1002E0000F5F1F4F0F731127E02E8C8D8E110CC0E6
:1002F0000FB607FCFACFE889F989808185FFF5CF31
:10030000CE010E942401F1CFEB8DEC0FFD2FF11DEA
:10031000E35AFF4FF0829FB7F8940B8FEA89FB896D
:1003200080818062CFCFCF93DF93EC01888D8823CB
:10033000B9F0AA89BB89E889F9898C9185FD03C048
:10034000808186FD0DC00FB607FCF7CF8C9185FF2D
:10035000F2CF808185FFEDCFCE010E942401E9CF4D
:10036000DF91CF91089590E0FC01E859FF4F24916F
:10037000FC01EC55FF4F3491FC01E057FF4FE49135
:10038000EE23C9F0222339F0233001F1A8F4213003
:1003900019F1223029F1F0E0EE0FFF1FE458FF4F72
:1003A000A591B4918FB7F894EC91611126C0309566
:1003B0003E233C938FBF08952730A9F02830C9F021
:1003C000243049F7809180008F7D03C080918000A8
:1003D0008F7780938000DFCF84B58F7784BDDBCFAC
:1003E00084B58F7DFBCF8091B0008F778093B00074
:1003F000D2CF8091B0008F7DF9CF3E2BDACFCF9254
:10040000DF92EF92FF92CF93DF93EC01603282E0B4
:100410007807CCF5653B710514F064EB70E08981D9
:1004200028E830E0281B310987FD3395220F331F60
:10043000220F331F6901330FEE08FF088A8128E578
:1004400032E0281B310987FD3395220F331F220F1D
:10045000331F032E000C440B550B2C193D094E097C
:100460005F09DB0177FF02C0B0E0A0E00E940B074C
:1004700024EB30E040E050E00E94E106C20ED31EC3
:10048000E41EF51EB601E881EC3070F5298188E89C
:1004900090E0821B910927FD9395880F991F880F83
:1004A000991F681779077CF02A8188E592E0821B02
:1004B000910927FD9395880F991F880F991F681739
:1004C00079070CF4CB010297880F991F4FB7F89466
:1004D0002E2F30E0F901EE0FFF1FE20FF31FE35361
:1004E000FE4F928381834FBFDF91CF91FF90EF90BA
:1004F000DF90CF900895892B79F41092800082E0EC
:10050000809381001092850010928400B19A8091AE
:100510006F00826080936F0008951F920F920FB654
:100520000F9211242F933F934F935F936F937F9379
:100530008F939F93AF93BF93EF93FF9380E391E0EB
:100540000E942401FF91EF91BF91AF919F918F91F4
:100550007F916F915F914F913F912F910F900FBEBF
:100560000F901F9018951F920F920FB60F921124A3
:100570002F938F939F93EF93FF93E0914001F0911E
:1005800041018081E0914601F091470182FD1BC04D
:100590009081809149018F5F8F7320914A0182176A
:1005A00041F0E0914901F0E0E05DFE4F958F8093CE
:1005B0004901FF91EF919F918F912F910F900FBE65
:1005C0000F901F9018958081F4CF1F920F920FB655
:1005D0000F9211242F933F938F939F93AF93BF93C9
:1005E00080911C0190911D01A0911E01B0911F01ED
:1005F00030911B0123E0230F2D3758F50196A11DE3
:10060000B11D20931B0180931C0190931D01A093A9
:100610001E01B0931F018091170190911801A091C4
:100620001901B0911A010196A11DB11D8093170106
:1006300090931801A0931901B0931A01BF91AF9143
:100640009F918F913F912F910F900FBE0F901F9010
:10065000189526E8230F0296A11DB11DD2CF1F9237
:100660000F920FB60F9211242F933F934F935F93E6
:100670006F937F938F939F93AF93BF93CF93DF93AA
:10068000EF93FF9380911601C091F101D0E087FFB5
:1006900024C01092850010928400809116018F5F13
:1006A0008093160180911601082E000C990B8C176F
:1006B0009D0724F4809116018C30C4F18091840050
:1006C00090918500049680349C4908F47AC080910A
:1006D000840090918500049676C080911601082EC2
:1006E000000C990B8C179D07C4F6E09116018E2F14
:1006F000EE0F990BFC01EE0FFF1FE80FF91FE353FC
:10070000FE4F808186FFC9CFE09116018E2FEE0F3C
:10071000990BFC01EE0FFF1FE80FF91FE353FE4F8B
:10072000808160E08F730E94B301B7CF2091840075
:1007300030918500E09116018E2FEE0F990BFC0190
:10074000EE0FFF1FE80FF91FE353FE4F81819281E7
:10075000820F931F9093890080938800E091160187
:100760008E2FEE0F990BFC01EE0FFF1FE80FF91F04
:10077000E353FE4F808186FF11C0E09116018E2F5A
:10078000EE0F990BFC01EE0FFF1FE80FF91FE3536B
:10079000FE4F808161E08F730E94B301FF91EF9162
:1007A000DF91CF91BF91AF919F918F917F916F9189
:1007B0005F914F913F912F910F900FBE0F901F901F
:1007C000189580E49CE990938900809388008FEFCE
:1007D00080931601E3CF109233011092320188EE1C
:1007E00093E0A0E0B0E08093340190933501A093B2
:1007F0003601B093370188E091E090933101809306
:10080000300185EC90E090933D0180933C0184ECB5
:1008100090E090933F0180933E0180EC90E09093B4
:1008200041018093400181EC90E0909343018093DB
:10083000420182EC90E0909345018093440186EC64
:1008400090E09093470180934601109249011092E5
:100850004A0110924B0110924C018091F1018C30B1
:1008600048F591E0980F9093F1018093F50190E0A5
:10087000FC01EE0FFF1FE80FF91FE353FE4F88EB5B
:100880009BE0928381838091F1018C30B8F491E0F8
:10089000980F9093F1018093F20190E0FC01EE0F2C
:1008A000FF1FE80FF91FE353FE4F88EB9BE0928395
:1008B000818308958FEF8093F501E5CF8FEF8093CB
:1008C000F2010895CF93DF9300D000D0CDB7DEB70B
:1008D000789484B5826084BD84B5816084BD85B51B
:1008E000826085BD85B5816085BD80916E00816027
:1008F00080936E00109281008091810082608093CD
:1009000081008091810081608093810080918000CE
:100910008160809380008091B10084608093B100F9
:100920008091B00081608093B00080917A008460F3
:1009300080937A0080917A00826080937A0080911F
:100940007A00816080937A0080917A008068809339
:100950007A001092C100E0914001F091410182E0E3
:100960008083E0913C01F0913D011082E0913E01D5
:10097000F0913F018FEC808310924801E091440197
:10098000F091450186E08083E0914201F0914301BE
:10099000808180618083E0914201F09143018081F8
:1009A00088608083E0914201F091430180818068FA
:1009B0008083E0914201F091430180818F7D8083AB
:1009C0008091F5018C3008F042C085E00E948700DC
:1009D0008091F501282F30E0F901EE0FFF1FE20FA3
:1009E000F31FE353FE4F9081907C956090831092AB
:1009F000F6011092F7012CE0622F0E94440790E06C
:100A0000829FB001112430E020E0AB01420F531F60
:100A1000FA01EE0FFF1FE40FF51FE353FE4F408175
:100A200046FD07C02F5F3F4F2C30310571F70E9404
:100A30007B02E091F5018E2F90E0FC01EE0FFF1F8D
:100A4000E80FF91FE353FE4F80818064808380911B
:100A5000F2018C3008F042C086E00E94870080914D
:100A6000F201282F30E0F901EE0FFF1FE20FF31F14
:100A7000E353FE4F9081907C966090831092F30137
:100A80001092F4012CE0622F0E94440790E0829FB4
:100A9000B001112430E020E0AB01420F531FFA01F6
:100AA000EE0FFF1FE40FF51FE353FE4F408146FD9D
:100AB00007C02F5F3F4F2C30310571F70E947B023A
:100AC000E091F2018E2F90E0FC01EE0FFF1FE80F86
:100AD000F91FE353FE4F80818064808380E480931C
:100AE0007C0080917A00806480937A0080917A0003
:100AF00086FDFCCF8091780060917900762F682F79
:100B0000072E000C880B990B611571058105910565
:100B100011F00E94D80687E00E94870061E087E01C
:100B20000E94B30182E0482E512C612C712C94EB71
:100B3000292E312C2FB7F89480911C0190911D0122
:100B4000A0911E01B0911F012FBF80932C019093A3
:100B50002D01A0932E01B0932F010E94890623E35B
:100B600030E040E050E00E94E10670932B0160937A
:100B70002A010E948906C0902C01D0902D01E0909E
:100B80002E01F0902F018090260190902701A090D7
:100B90002801B0902901A7019601281939094A09AD
:100BA0005B092C3F38404105510560F1C092260198
:100BB000D0922701E0922801F0922901A0902A0109
:100BC000B0902B010091200110912101A30192010D
:100BD0000E94E106672B09F045C00A191B0917FDA1
:100BE00005C0109321010093200104C0109221013F
:100BF00010922001609120017091210182EF91E01B
:100C00000E94FF018091220190912301A091240173
:100C1000B091250146015701881A990AAA0ABB0A10
:100C2000D501C401803D9740A105B10570F0C09287
:100C30002201D0922301E0922401F092250170E07C
:100C400060E085EF91E00E94FF0140E050E0452B1D
:100C500009F470CF0E941001882309F46BCF0E9421
:100C6000000068CF0A0D1B1D053B11050CF4B9CF20
:100C70003092210120922001BDCF8F929F92AF929E
:100C8000BF92CF92DF92EF92FF92CF93DF93EC016E
:100C9000688179818A819B81611571058105910542
:100CA00021F464E279ED8BE597E02DE133EF41E04B
:100CB00050E00E94E10649015A019B01AC01A7EAFC
:100CC000B1E40E9400076B017C01ACEEB4EFA5011A
:100CD00094010E940E07C60ED71EE81EF91EF7FEED
:100CE00006C081E0C81AD108E10880E8F80AC88285
:100CF000D982EA82FB82C701B6019F77DF91CF914B
:100D0000FF90EF90DF90CF90BF90AF909F908F902B
:100D100008958F929F92AF92BF92CF92DF92EF92FF
:100D2000FF92609100017091010180910201909108
:100D30000301611571058105910521F464E279EDE6
:100D40008BE597E02DE133EF41E050E00E94E106B2
:100D500049015A019B01AC01A7EAB1E40E940007D6
:100D60006B017C01ACEEB4EFA50194010E940E076B
:100D7000C60ED71EE81EF91EF7FE06C081E0C81A8F
:100D8000D108E10880E8F80AC0920001D092010180
:100D9000E0920201F0920301C701B6019F77FF9034
:100DA000EF90DF90CF90BF90AF909F908F9008957D
:100DB00060930001709301018093020190930301FD
:100DC0000895052E97FB1EF400940E94F80657FD27
:100DD00007D00E94130707FC03D04EF40C94F806CA
:100DE00050954095309521953F4F4F4F5F4F089557
:100DF00090958095709561957F4F8F4F9F4F089587
:100E00000E943507A59F900DB49F900DA49F800D63
:100E1000911D11240895B7FF0C9400070E9400074C
:100E2000821B930B0895A1E21A2EAA1BBB1BFD0186
:100E30000DC0AA1FBB1FEE1FFF1FA217B307E407B9
:100E4000F50720F0A21BB30BE40BF50B661F771F11
:100E5000881F991F1A9469F76095709580959095F1
:100E60009B01AC01BD01CF010895A29FB001B39FCA
:100E7000C001A39F700D811D1124911DB29F700DA3
:100E8000811D1124911D0895991B79E004C0991FBB
:100E9000961708F0961B881F7A95C9F780950895D4
:100EA000EE0FFF1F0590F491E02D0994F894FFCF09
:100EB00001000000000000004601A600D3009301DD
:060EC0000401E200F6004F
:00000001FF
